8=FIX.4.2|9=647|35=n|34=9667|369=15904|52=20210218-13:55:44.904|49=CME|50=G|56=OHKFJDN|57=DC0003|143=HK|212=546|213=<RTRF>8=FIX.4.2|9=510|35=8|34=13199|369=11940|52=20210218-13:55:44.904|49=CME|50=G|56=PLZ3KHP|57=HK8572|143=CN|1=DAH0010031|6=0|11=AC402180000000219|14=1|17=72602:M:34757TN0000002|20=0|31=3100|32=1|37=7228651020110|38=1|39=2|40=2|41=0|44=3100|48=338369|54=2|55=B2|59=0|60=20210218-13:55:44.903|75=20210218|107=BTCG1 P5200|150=2|151=0|167=OPT|337=TRADE|375=CME000A|432=20210218|442=1|527=7228651020110202102182|1028=Y|1031=G|1057=N|5979=1613656544903893129|9717=AC402180000000219|37711=1911830|1362=1|1363=Y1|1364=3100|1365=1|1622=4|10=078|</RTRF>|10=107|
addsdfsfsfsffffffsfsfsfsf
8=FIX.4.2|9=656|35=n|34=9668|369=15905|52=20210218-13:56:13.562|49=CME|50=G|56=OHKFJDN|57=DC0003|143=HK|212=555|213=<RTRF>8=FIX.4.2|9=519|35=8|34=13201|369=11942|52=20210218-13:56:13.562|49=CME|50=G|56=PLZ3KHP|57=HK9011|143=CN|1=DAH0010031|6=0|11=AC402180000000220|14=2|17=68602:M:8228974TN0073262|20=0|31=1356500|32=2|37=6819951735917|38=3|39=1|40=2|41=0|44=1356325|48=4378|54=2|55=NQ|59=0|60=20210218------13:56:13.562|75=20210218|107=NQH1|150=1|151=1|167=FUT|337=TRADE|375=CME000A|432=20210218|442=1|527=68199517359172021021873262|1028=N|1031=G|1057=Y|5979=1613656573562449769|9717------=AC402180000000220|37711=233196999|1362=1|1363=Y1|1364=1356500|1365=2|1622=11|10=178|</RTRF>|10=207|
66 44